{
  "contractName": "funders",
  "abi": [
    {
      "inputs": [
        {
          "internalType": "uint256",
          "name": "",
          "type": "uint256"
        }
      ],
      "name": "Votes",
      "outputs": [
        {
          "internalType": "uint256",
          "name": "",
          "type": "uint256"
        }
      ],
      "stateMutability": "view",
      "type": "function",
      "constant": true
    },
    {
      "inputs": [],
      "name": "giveVote0",
      "outputs": [],
      "stateMutability": "nonpayable",
      "type": "function"
    },
    {
      "inputs": [],
      "name": "giveVote1",
      "outputs": [],
      "stateMutability": "nonpayable",
      "type": "function"
    },
    {
      "inputs": [],
      "name": "giveVote2",
      "outputs": [],
      "stateMutability": "nonpayable",
      "type": "function"
    },
    {
      "inputs": [],
      "name": "giveVote3",
      "outputs": [],
      "stateMutability": "nonpayable",
      "type": "function"
    },
    {
      "inputs": [],
      "name": "totalVotes",
      "outputs": [
        {
          "internalType": "uint256",
          "name": "",
          "type": "uint256"
        }
      ],
      "stateMutability": "view",
      "type": "function",
      "constant": true
    },
    {
      "inputs": [],
      "name": "mostVoted",
      "outputs": [
        {
          "internalType": "uint256",
          "name": "",
          "type": "uint256"
        }
      ],
      "stateMutability": "view",
      "type": "function",
      "constant": true
    }
  ],
  "bytecode": "0x608060405234801561001057600080fd5b506108b0806100206000396000f3fe608060405234801561001057600080fd5b506004361061007d5760003560e01c80631dd97b461161005b5780631dd97b46146100b4578063571f8c13146100be578063781825d1146100c8578063ac2987ff146100e65761007d565b80630aad4a05146100825780630d15fd771461008c5780631264ef45146100aa575b600080fd5b61008a610116565b005b610094610256565b6040516100a19190610704565b60405180910390f35b6100b26102a8565b005b6100bc6103e7565b005b6100c6610527565b005b6100d0610667565b6040516100dd9190610704565b60405180910390f35b61010060048036038101906100fb9190610750565b6106d0565b60405161010d9190610704565b60405180910390f35b60003390506000805b6004805490508110156101b6578273ffffffffffffffffffffffffffffffffffffffff16600482815481106101575761015661077d565b5b9060005260206000200160009054906101000a900473ffffffffffffffffffffffffffffffffffffffff1673ffffffffffffffffffffffffffffffffffffffff1614156101a357600191505b80806101ae906107db565b91505061011f565b506000811415610252576004829080600181540180825580915050600190039060005260206000200160009091909190916101000a81548173ffffffffffffffffffffffffffffffffffffffff021916908373ffffffffffffffffffffffffffffffffffffffff1602179055506001600060016004811061023a5761023961077d565b5b01600082825461024a9190610824565b925050819055505b5050565b6000806000905060005b600481101561029f576000816004811061027d5761027c61077d565b5b01548261028a9190610824565b91508080610297906107db565b915050610260565b50606391505090565b60003390506000805b600480549050811015610348578273ffffffffffffffffffffffffffffffffffffffff16600482815481106102e9576102e861077d565b5b9060005260206000200160009054906101000a900473ffffffffffffffffffffffffffffffffffffffff1673ffffffffffffffffffffffffffffffffffffffff16141561033557600191505b8080610340906107db565b9150506102b1565b5060008114156103e3576004829080600181540180825580915050600190039060005260206000200160009091909190916101000a81548173ffffffffffffffffffffffffffffffffffffffff021916908373ffffffffffffffffffffffffffffffffffffffff1602179055506001600080600481106103cb576103ca61077d565b5b0160008282546103db9190610824565b925050819055505b5050565b60003390506000805b600480549050811015610487578273ffffffffffffffffffffffffffffffffffffffff16600482815481106104285761042761077d565b5b9060005260206000200160009054906101000a900473ffffffffffffffffffffffffffffffffffffffff1673ffffffffffffffffffffffffffffffffffffffff16141561047457600191505b808061047f906107db565b9150506103f0565b506000811415610523576004829080600181540180825580915050600190039060005260206000200160009091909190916101000a81548173ffffffffffffffffffffffffffffffffffffffff021916908373ffffffffffffffffffffffffffffffffffffffff1602179055506001600060036004811061050b5761050a61077d565b5b01600082825461051b9190610824565b925050819055505b5050565b60003390506000805b6004805490508110156105c7578273ffffffffffffffffffffffffffffffffffffffff16600482815481106105685761056761077d565b5b9060005260206000200160009054906101000a900473ffffffffffffffffffffffffffffffffffffffff1673ffffffffffffffffffffffffffffffffffffffff1614156105b457600191505b80806105bf906107db565b915050610530565b506000811415610663576004829080600181540180825580915050600190039060005260206000200160009091909190916101000a81548173ffffffffffffffffffffffffffffffffffffffff021916908373ffffffffffffffffffffffffffffffffffffffff1602179055506001600060026004811061064b5761064a61077d565b5b01600082825461065b9190610824565b925050819055505b5050565b600080600090506000805b60048110156106c75781600082600481106106905761068f61077d565b5b015411156106b457809250600081600481106106af576106ae61077d565b5b015491505b80806106bf906107db565b915050610672565b50819250505090565b600081600481106106e057600080fd5b016000915090505481565b6000819050919050565b6106fe816106eb565b82525050565b600060208201905061071960008301846106f5565b92915050565b600080fd5b61072d816106eb565b811461073857600080fd5b50565b60008135905061074a81610724565b92915050565b6000602082840312156107665761076561071f565b5b60006107748482850161073b565b91505092915050565b7f4e487b7100000000000000000000000000000000000000000000000000000000600052603260045260246000fd5b7f4e487b7100000000000000000000000000000000000000000000000000000000600052601160045260246000fd5b60006107e6826106eb565b91507fffffffffffffffffffffffffffffffffffffffffffffffffffffffffffffffff821415610819576108186107ac565b5b600182019050919050565b600061082f826106eb565b915061083a836106eb565b9250827fffffffffffffffffffffffffffffffffffffffffffffffffffffffffffffffff0382111561086f5761086e6107ac565b5b82820190509291505056fea26469706673582212209acdf1e1a326d1b03606928dc384b74ec2f38e5e9a66ae6995873e0e27bf044164736f6c63430008090033",
  "immutableReferences": {},
  "source": "// SPDX-License-Identifier: GPL-3.0\npragma solidity >=0.8.2 <0.9.0;\n\ncontract funders{\n    //4 parties are competing and voter has to select from this 4 parties/\n\n    uint[4] public Votes;   //array where votes per party will be stored\n    address[] participants; //storing address to make sure one person wont be able to vote twice\n\n    function  giveVote0() public{\n       // require(_partyNumber>=0 && _partyNumber<4);\n        address voter = msg.sender;\n        uint flag = 0;\n        for(uint i =0;i<participants.length;i++){\n            if(participants[i]==voter){\n                flag=1;\n            }\n        }\n        if(flag==0){\n            participants.push(voter);\n           \n          \n                    Votes[0]+=1;\n                \n      \n        \n    }  \n    }\n        function  giveVote1() public{\n       // require(_partyNumber>=0 && _partyNumber<4);\n        address voter = msg.sender;\n        uint flag = 0;\n        for(uint i =0;i<participants.length;i++){\n            if(participants[i]==voter){\n                flag=1;\n            }\n        }\n        if(flag==0){\n            participants.push(voter);\n           \n          \n                    Votes[1]+=1;\n                \n      \n        \n    }  \n    }\n        function  giveVote2() public{\n     //   require(_partyNumber>=0 && _partyNumber<4);\n        address voter = msg.sender;\n        uint flag = 0;\n        for(uint i =0;i<participants.length;i++){\n            if(participants[i]==voter){\n                flag=1;\n            }\n        }\n        if(flag==0){\n            participants.push(voter);\n           \n          \n                    Votes[2]+=1;\n                \n      \n        \n    }  \n    }\n        function  giveVote3() public{\n    //    require(_partyNumber>=0 && _partyNumber<4);\n        address voter = msg.sender;\n        uint flag = 0;\n        for(uint i =0;i<participants.length;i++){\n            if(participants[i]==voter){\n                flag=1;\n            }\n        }\n        if(flag==0){\n            participants.push(voter);\n           \n          \n                    Votes[3]+=1;\n                \n      \n        \n    }  \n    }\n  \n    function totalVotes() public view returns(uint){ \n        uint totalvote=0;\n        for(uint i=0;i<Votes.length;i++){\n            totalvote+=Votes[i];\n        }\n        return 99;\n    }\n    function mostVoted() public view returns(uint){\n        uint index =0;\n        uint maxValue = 0;\n        for(uint i=0;i<Votes.length;i++){\n            if(Votes[i]>maxValue){\n                index = i;\n                maxValue=Votes[i];\n            }\n        }\n        return index;\n    }\n}",
  "sourcePath": "C:\\Users\\OS\\Desktop\\blockchain\\contracts\\funders.sol",
  "compiler": {
    "name": "solc",
    "version": "0.8.9+commit.e5eed63a.Emscripten.clang"
  },
  "schemaVersion": "3.4.14",
  "updatedAt": "2023-06-04T10:16:56.642Z",
  "networkType": "ethereum",
  "devdoc": {
    "kind": "dev",
    "methods": {},
    "version": 1
  },
  "userdoc": {
    "kind": "user",
    "methods": {},
    "version": 1
  }
}